S0120000486F6D6547656E6975732E737265631E
S113000053C000006FC000006DC000006BC0000052
S113001069C0000067C0000065C0000063C0000044
S113002061C000005FC00000C9C500003FC40000FB
S113003059C0000057C0000089C5000053C000002B
S113004051C000004FC0000031C600004BC000008A
S113005049C0000047C0000045C0000043C0000084
S113006041C000003FC000003DC000003BC0000094
S113007039C0000037C0000035C0000033C00000A4
S113008031C000002FC000002DC00000B004B20435
S1130090B404B604B804BA04BC04BE04C004C20464
S11300A0C404C604CA04C80411241FBECFEFD0E19F
S11300B0DEBFCDBF11E0A0E0B1E0E2EFF2E100E08D
S11300C00BBF02C007900D92A03CB107D9F722E004
S11300D0A0ECB1E001C01D92A930B207E1F73AD318
S11300E00C9477098DCF86B1876086B987B18F73F9
S11300F0806487B9379A08958F7197B1907E892B60
S113010087B9369A3699FECF84B195B1089583C5DF
S113011008951F93CF93DF93EC01162F89D5CE0159
S113012088279770880F892F881F990B9195806A6B
S113013097D58C2F95D5812F93D583D5DF91CF91EA
S11301401F9108950F931F93CF93DF938C0170D564
S1130150E801CC27D770CC0FCD2FCC1FDD0BD19568
S11301608C2F806A7DD5802F7BD562D58C2F816AB8
S113017077D56BD5C82F65D58C2FDF91CF911F9183
S11301800F910895CF93DF9380E0B6DF9C01A9E837
S1130190B8E8C3D5EC01D695C795D695C795D6953D
S11301A0C795CD32D10530F1ADD483B1805883B930
S11301B048E051E06FE081E06CD44BE051E06DE049
S11301C082E067D4BE0180E090E06CD42FEF81EE32
S11301D094E0215080409040E1F700C0000040E1ED
S11301E051E06FE081E055D44EE051E06DE082E0F3
S11301F050D401C013BEDF91CF910895CF93DF9304
S11302008091CA018F5F8093CA018091D6018332A5
S113021009F0A1C0E0910601F09107019091C1019C
S1130220808198131BC080E0A0ECB1E016969C91ED
S113023016979E3409F4D89A8F5F282F30E0F9017D
S1130240E054FE4F4091060150910701EA01C20FAC
S1130250D31F41819881491749F301C080E0282FB9
S113026030E0F901E054FE4F409104015091050142
S1130270DA01A20FB31F41819C91491319C0A0EC6C
S1130280B1E017969C911797963409F4D8988F5F2C
S1130290282F30E0F901E054FE4F409104015091C1
S11302A00501EA01C20FD31F41819881491749F31F
S11302B0282F30E0F901E054FE4F409102015091A3
S11302C00301DA01A20FB31F41819C91491319C0A4
S11302D0A0ECB1E016969C9116979E3409F4DF9A2F
S11302E08F5F282F30E0F901E054FE4F4091020166
S11302F050910301EA01C20FD31F4181988149172C
S113030049F3282F30E0F901E054FE4F40910001F9
S113031050910101DA01A20FB31F41819C9149134D
S113032025C0A0ECB1E017969C911797963409F478
S1130330DF988F5F282F30E0F901E054FE4F4091A1
S1130340000150910101EA01C20FD31F418198813C
S1130350491749F30BC08091D6018BD3E091CA01B0
S11303608091D601F0E0E054FE4F8083DF91CF917D
S113037008951F9A2FE788E391E021508040904030
S1130380E1F700C000001F9808951F93CF93DF93F7
S113039049D343E151E064E081E07BD348E451E098
S11303A061E082E076D3D0E010E0ACD22FEF84E3BA
S11303B09CE0215080409040E1F700C00000A2D2B0
S11303C0C82FD7DFCD3041F1CC3481F0C334D1F024
S11303D06C2F70E080E090E065D3ED2FF0E0EE52FA
S11303E0FE4F8081C81318C01F5F16C04EE051E055
S11303F066E082E04ED366E070E082E090E008D3ED
S1130400D0E0D3CF2FEF82E597E021508040904099
S1130410E1F700C0000074C0DF5FD43008F4C5CF3A
S113042071D22FEF82E597E0215080409040E1F7B0
S113043000C0000067D2C82F9CDFCD3009F051C046
S11304401430A9F0EFD243E151E064E081E021D31C
S11304504FE151E061E082E01CD32FEF83ED90E3A4
S1130460215080409040E1F700C0000091CFDAD2E3
S113047043E151E064E081E00CD34EE251E061E0FD
S113048082E007D32FEF83ED90E32150804090402A
S1130490E1F700C00000139A8BEB90E03DD32FEFFF
S11304A083ED90E3215080409040E1F700C00000CC
S11304B08AEF90E031D32FEF83ED90E32150804019
S11304C09040E1F700C000008CE790E025D32FEFC7
S11304D083ED90E3215080409040E1F700C000009C
S11304E00FC0CC3409F454CFC33409F099CF2FEFA3
S11304F082E597E0215080409040E1F700C0000081
S1130500DF91CF911F910895EF92FF920F931F9364
S1130510CF93DF9300D000D0CDB7DEB783D249E3C9
S113052051E062E081E0B5D245E451E061E082E06F
S1130530B0D200E0F12CE6D12FEF84E39CE021500F
S113054080409040E1F700C00000DCD1182F11DF9B
S11305501D3041F11C3481F01334D1F0612F70E06F
S113056080E090E09FD2E02FF0E0EE52FE4F8081D9
S1130570181318C0F39416C04EE051E069E082E00D
S113058088D269E070E082E090E042D200E0D3CF0C
S1130590EFEFF2E527E0E150F0402040E1F700C042
S11305A00000CDC00F5F043008F4C5CFABD18FEF8E
S11305B092E5E7E081509040E040E1F700C00000A0
S11305C0A1D1182FD6DE1D3009F0AAC0F4E0FF1621
S11305D009F499C027D249E351E062E081E059D29D
S11305E04EE451E061E082E054D22FEF83ED90E3DA
S11305F0215080409040E1F700C000008FCF82D1AD
S1130600EFEFF4E32CE0E150F0402040E1F700C0CC
S1130610000078D1182FE1E0F0E0EC0FFD1FE00FAF
S1130620F11D8083A6DE1D3001F11C3441F013342A
S113063091F0612F70E080E090E034D216C04EE07B
S113064051E069E082E025D269E070E082E090E068
S1130650DFD100E0D4CF8FEF92E5E7E08150904006
S1130660E040E1F700C000006AC00F5F043038F2D8
S113067049D1FFEF22E587E0F15020408040E1F7C7
S113068000C000003FD1182F74DE1D3069F5FE0153
S113069031967F0100E310E0F70161917F01C80109
S11306A038DDFFEF20E782E0F15020408040E1F7A1
S11306B000C000000F5F1F4F0433110569F7B2D16A
S11306C049E351E062E081E0E4D149E551E061E0D1
S11306D082E0DFD19FEFE3EDF0E39150E040F040A2
S11306E0E1F700C000002BC01C3469F0133409F09A
S11306F0BFCF2FEF82E597E0215080409040E1F793
S113070000C000001CC08ED149E351E062E081E0EA
S1130710C0D141E651E061E082E0BBD100E06FCF9F
S11307201C3409F4FBCE133409F040CFEFEFF2E5AB
S113073027E0E150F0402040E1F700C000000F90B6
S11307400F900F900F90DF91CF911F910F91FF9019
S1130750EF9008957894DBDC9FD08EEF90E0A1D2E7
S11307608AD2CCD181E88ABB2FEF81EE94E021506C
S113077080409040E1F700C00000B5DC82EC90E0DE
S1130780E0D114D2E1E6F0E0808188608083E2E683
S1130790F0E0808188608083179ABC9A00E010E0C2
S11307A0C801C096CFDCF801EE52FE4F8083EFEF14
S11307B0F0E722E0E150F0402040E1F700C0000003
S11307C00F5F1F4F0430110559F78D9A959A8AE1EE
S11307D08A95F1F700C095989FEFE9E6F8E191500A
S11307E0E040F040E1F700C000002091CB013091DF
S11307F0CC01AFE9B6E491D2929582958F708927A6
S11308009F7089270196899708F702E610E0F8019E
S11308108081877F8083FFEF21EE84E0F1502040C8
S11308208040E1F700C0000006D1FCD04AE651E068
S113083064E081E02ED145E751E061E082E029D116
S1130840F1D04AE651E064E081E023D145E751E08C
S113085061E082E01ED156D0C82F8BDDC13019F083
S1130860C23019F004C091DDD2CF4EDED0CFDAD041
S11308704FE751E062E081E00CD14DE851E061E0E6
S113088082E007D19FEFE3EDF0E39150E040F040C8
S1130890E1F700C00000D4CF8C9882E48EBD1DBC6B
S11308A01CBC17BC16BC80E287BF08951F920F9230
S11308B00FB60F9211248F939F938091CD018F5F78
S11308C08093CD018091CD01813031F41DBC1CBCDD
S11308D08EB58F7B8EBD0FC08091CD01823059F4CF
S11308E086B597B59093CC018093CB018EB5806487
S11308F08EBD1092CD019F918F910F900FBE0F90DE
S11309001F901895A0E1B0E040E050E0E42FCD0145
S1130910042E02C0880F991F0A94E2F781BB8095C8
S113092082BB809B0EC021E030E0622F80B390E058
S1130930022E02C0959587950A94E2F780FD2CC09B
S113094001C060E0EF5F660F660FE60F8E2F90E048
S1130950FC013197EE30F105E8F4EA5BFF4FD4C1B6
S113096083E4089581E0089582E0089583E0089582
S113097084E0089585E0089586E008958CE4089560
S113098087E0089588E0089589E008958DE008954A
S113099080E0089584E608952F5F3F4F24303105A9
S11309A021F64F5F5F4F4430510509F0AFCFACCF14
S11309B0C59895B39F70282F207F922B95BBC79A1B
S11309C0C79825B32F7030E1839FC0011124822B77
S11309D085BBC79AC7988AE68A95F1F700C008953F
S11309E0C59A95B39F70282F207F922B95BBC79AE9
S11309F0C79825B32F7030E1839FC0011124822B47
S1130A0085BBC79AC7988AE68A95F1F700C008950E
S1130A10813021F48FE7860FCBCF08958FEB860FBB
S1130A20C7CF089581E0C4DF8FE097E20197F1F723
S1130A3000C000000895149A87B3806E87BB84B306
S1130A40806F84BB1C9A88B38F7188BB85B38F7009
S1130A5085BB8FE39CE90197F1F700C0000082E0B9
S1130A60A7DF88E2A5DF8CE0A3DF86E0A1DFDACF91
S1130A700895B6CF0895CF93DF93EC01888188233E
S1130A8029F02196ADDF89918111FCCFDF91CF91BF
S1130A900895CF93DF93EA01BBDFCE01ECDFDF9152
S1130AA0CF9108950F931F93CF93DF93CDB7DEB704
S1130AB060970FB6F894DEBF0FBECDBF9F938F93A0
S1130AC07F936F938CEB91E09F938F938E010F5FD5
S1130AD01F4F1F930F9330D1C801CDDF0FB6F89489
S1130AE0DEBF0FBECDBF60960FB6F894DEBF0FBE5B
S1130AF0CDBFDF91CF911F910F910895579A08951B
S1130B008CB1089583B78F6983BF12BE8FEF81BF05
S1130B1087B7826087BF0895109289001092880079
S1130B2023EC39E030938100209380009093870078
S1130B308093860082E880938B008BE180938A0007
S1130B4008959093CF018093CE0108951F920F9240
S1130B500FB60F9211240BB60F922F933F934F931E
S1130B605F936F937F938F939F93AF93BF93EF9311
S1130B70FF931F98E091CE01F091CF01099580ED8C
S1130B809AE89DBD8CBDFF91EF91BF91AF919F916C
S1130B908F917F916F915F914F913F912F910F9022
S1130BA00BBE0F900FBE0F901F90189585B58568EA
S1130BB085BD14BC87B7806487BF08951F920F92C8
S1130BC00FB60F9211240BB60F922F933F934F93AE
S1130BD05F936F937F938F939F93AF93BF93EF93A1
S1130BE0FF931F98E091CE01F091CF01099514BCB9
S1130BF0FF91EF91BF91AF919F918F917F916F91F1
S1130C005F914F913F912F910F900BBE0F900FBEAC
S1130C100F901F90189582E0809370008CEF809362
S1130C20710080E18093720084E0809374000895E1
S1130C3084EA80937400E4E7F0E080818823ECF791
S1130C40089584E980937400089584E8809374007F
S1130C50E4E7F0E080818823ECF780917300089545
S1130C608093730084E880937400E4E7F0E080816B
S1130C708823ECF708955998E5E9F0E080818260D3
S1130C80808380818460808380818F7E8083808163
S1130C90806280831092900083E389B9549A539AB6
S1130CA008959093D1018093D00108951F920F92DB
S1130CB00FB60F9211240BB60F922F933F934F93BD
S1130CC05F936F937F938F939F93AF93BF93EF93B0
S1130CD0FF9316DF8093D601E091D001F091D1010A
S1130CE00995FF91EF91BF91AF919F918F917F9162
S1130CF06F915F914F913F912F910F900BBE0F9089
S1130D000FBE0F901F901895EE0FFF1F0024001CBC
S1130D100BBE0790F691E02D0994A29FB001B39FFA
S1130D20C001A39F700D811D1124911DB29F700DF0
S1130D30811D1124911D08950F931F93CF93DF9369
S1130D40CDB7DEB72E970FB6F894DEBF0FBECDBF7A
S1130D500D891E8986E08C831A8309838FEF9FE7B0
S1130D609E838D83AE01475E5F4F6F89788DCE0180
S1130D70019610D0EF81F885E00FF11F10822E96B6
S1130D800FB6F894DEBF0FBECDBFDF91CF911F9198
S1130D900F9108952F923F924F925F926F927F929C
S1130DA08F929F92AF92BF92CF92DF92EF92FF9277
S1130DB00F931F93CF93DF93CDB7DEB72B970FB667
S1130DC0F894DEBF0FBECDBF6C017B018A01FC012C
S1130DD017821682838181FFBFC1CE0101963C0137
S1130DE0F6019381F70193FD859193FF81917F0132
S1130DF0882309F4ADC1853239F493FD859193FFBD
S1130E0081917F01853221F4B60190E0D6D1E8CFFB
S1130E10912C212C312CFFE1F315D8F08B3279F091
S1130E2038F4803279F08332A1F4232D20611DC07F
S1130E308D3261F0803369F4232D216016C0832D37
S1130E408260382EE32DE4603E2E2AC0F32DF86034
S1130E501DC037FC2DC020ED280F2A3040F08E3203
S1130E60B9F436FC75C1232D2064322E19C036FE28
S1130E7006C08AE0989E200D1124922E11C0EAE04B
S1130E802E9E200D1124222EF32DF0623F2E08C039
S1130E908C3621F4832D8068382E02C0883641F4C4
S1130EA0F70193FD859193FF81917F018111B3CF68
S1130EB0982F9F7D9554933028F40C5F1F4F9FE328
S1130EC099830DC0833631F0833771F0833509F08F
S1130ED055C020C0F801808189830E5F1F4F88248C
S1130EE08394912C530112C02801F2E04F0E511C3F
S1130EF0F801A080B18036FE03C0692D70E002C005
S1130F006FEF7FEFC5014ED14C018201F32DFF77C6
S1130F103F2E15C0280122E0420E511CF801A0808A
S1130F20B18036FE03C0692D70E002C06FEF7FEF21
S1130F30C5012DD14C01F32DF0683F2E820133FC05
S1130F4019C0822D90E088169906A0F4B60180E2BB
S1130F5090E033D12A94F5CFF50137FC859137FE23
S1130F6081915F01B60190E028D121102A9421E0FB
S1130F70821A91088114910479F7E1C0843611F042
S1130F80893639F5F80137FE07C0608171818281A5
S1130F9093810C5F1F4F08C060817181072E000C84
S1130FA0880B990B0E5F1F4FF32DFF763F2E97FF93
S1130FB009C090958095709561957F4F8F4F9F4F95
S1130FC0F0683F2E2AE030E0A30133D1882E861842
S1130FD044C0853731F4232D2F7EB22E2AE030E031
S1130FE025C0932D997FB92E8F36C1F018F488351A
S1130FF079F0AEC0803719F0883721F0A9C0E92F05
S1131000E061BE2EB4FE0DC0FB2DF460BF2E09C0FE
S113101034FE0AC0292F2660B22E06C028E030E034
S113102005C020E130E002C020E132E0F801B7FE63
S113103007C060817181828193810C5F1F4F06C05C
S11310406081718180E090E00E5F1F4FA301F1D0B9
S1131050882E8618FB2DFF773F2E36FE0DC0232DDC
S11310602E7FA22E891458F434FE0BC032FC09C022
S1131070832D8E7EA82E05C0B82CA32C03C0B82CBB
S113108001C0B92CA4FE0FC0FE01E80DF11D808142
S1131090803321F49A2D997EA92E09C0A2FE06C0A0
S11310A0B394B39404C08A2D867809F0B394A3FC56
S11310B010C0A0FE06C0B21480F4280C922C9B1819
S11310C00DC0B21458F4B60180E290E076D0B39427
S11310D0F8CFB21418F42B1802C0982C212CA4FEBB
S11310E00FC0B60180E390E068D0A2FE16C0A1FC58
S11310F003C088E790E002C088E590E0B6010CC028
S11311008A2D867851F0A1FE02C08BE201C080E2F4
S1131110A7FC8DE2B60190E050D0891430F4B601FA
S113112080E390E04AD09A94F8CF8A94F301E80DD2
S1131130F11D8081B60190E040D08110F6CF2220CD
S113114009F44ECEB60180E290E037D02A94F7CF6E
S1131150F6018681978102C08FEF9FEF2B960FB621
S1131160F894DEBF0FBECDBFDF91CF911F910F91D9
S1131170FF90EF90DF90CF90BF90AF909F908F90B3
S11311807F906F905F904F903F902F900895FC0157
S11311900590615070400110D8F7809590958E0F9E
S11311A09F1F0895FC016150704001900110D8F711
S11311B0809590958E0F9F1F08950F931F93CF9343
S11311C0DF93FB01238121FD03C08FEF9FEF2CC030
S11311D022FF16C046815781248135814217530767
S11311E044F4A081B1819D012F5F3F4F318320835F
S11311F08C93268137812F5F3F4F3783268314C01A
S11312008B01EC01FB010084F185E02D0995892B0C
S1131210E1F6D80116968D919C9117970196179631
S11312209C938E931697CE01DF91CF911F910F91CE
S11312300895FA01AA27283051F1203181F1E89468
S11312406F936E7F6E5F7F4F8F4F9F4FAF4FB1E0B5
S11312503ED0B4E03CD0670F781F891F9A1FA11DB0
S1131260680F791F8A1F911DA11D6A0F711D811DB1
S1131270911DA11D20D009F468943F912AE0269F76
S113128011243019305D3193DEF6CF010895462FD5
S11312904770405D4193B3E00FD0C9F7F6CF462FB6
S11312A04F70405D4A3318F0495D31FD405241931F
S11312B002D0A9F7EACFB4E0A695979587957795DC
S11312C06795BA95C9F700976105710508959B0163
S11312D0AC010A2E06945795479537952795BA95EC
S11312E0C9F7620F731F841F951FA01D0895F894FA
S10512F0FFCF2A
S11312F29E01A601AD01B501464100543A002020E9
S1131302202000446F6F722041636365737300573A
S1131312726F6E672050617373776F7264004775E2
S11313226172616E74656564004368616E6765200D
S113133250617373004F6C64506173733A00577257
S11313426F6E6720506173730053756363657373C3
S1131352004E6577506173733A00486F6D65476557
S11313626E69757300313A444120323A4350006940
S11313726E76616C696420696E70757400506C6578
S11313826173652074727920616761696E004041FE
S1131392432C4F4646004041432C4F4E0040545686
S11313A22C4F4646004054562C4F4E0025640000F4
S9030000FC
